:02000002D0002C
:1040000000400D0034860D00000006000C00050184
:084010000401BD0B00000000DB
:0440180014770D000C
:10401C0009480A49884208B505D0094A824202D0AB
:10402C00121A03F025FB0748074A0021121A03F065
:10403C002DFB014808BD00BFACE40320A4850D0096
:10404C0014E5032014E50320F0E7032070B5074EB8
:10405C00074C03F0F5F8A41BA4080025A54200D1D9
:10406C0070BD56F8043B98470135F7E774850D0091
:10407C0098850D0000F080B808B500F0A1F8BDE8F7
:10408C00084003F09FB802F013B802F011B802F028
:10409C0017B802F015B8000008B5034A00210C202F
:1040AC0001F062FFFEE700BF355C0D000078B0FA4E
:1040BC0080F04009704701230370704738B584695C
:1040CC000A4B036005467CB16368013B63605BB9D6
:1040DC00236820469B689847A368013BA3601BB9E3
:1040EC0023682046DB689847284638BD80830D003E
:1040FC000EB403B503AB002153F8042B019302F06B
:10410C0070FA02B05DF804EB03B07047B0B502F181
:10411C00080323F0070300AF1446ADEB030D002595
:10412C00684603F0A5FA0DF80450114C02F0C0FFDC
:10413C006A461049FFF7DCFF204600F045FE20469A
:10414C00012100F090FC4FF0011363616946256179
:10415C00204602F01EFA204601F0A2F84FF47A70C5
:10416C0001F0D6FF02F0A4FF02F007FABD46B0BD85
:10417C00D4E5032028770D0010B50F4C204601F034
:10418C00D9FC204600F020FE2046012100F06BFCFB
:10419C000A4900224FF001132046C4E9042302F01F
:1041AC00F8F9204601F07CF802F082FFBDE81040DF
:1041BC004FF4165102F070BFD4E503202B770D009D
:1041CC0010B5114C204601F0DEFC204600F0FCFD41
:1041DC002046012100F047FC00224FF001130B4850
:1041EC00C4E9042301F095FA68B1084801F0E7FA34
:1041FC000749064801F02BFC02F05AFFBDE81040BD
:10420C00034902F0B3B910BDD4E5032074E50320D3
:10421C0030770D0073B51C4D1C4E0021012001F0B0
:10422C00C3FE2846002402F0BBFD05F11C0002F081
:10423C0065F86C632C8732461549284603F0EEF876
:10424C00144B15499C61C3E90054144D9C83C3E97C
:10425C000244C3E9044440F25B72114B00942846BB
:10426C00104C01F04DF932460F49284603F0D6F8B0
:10427C000721204601F030FC0C493246204602B0A2
:10428C00BDE8704003F0CAB838E5032014E50320FC
:10429C00C9400D0018E5032038770D0074E50320A4
:1042AC0019410D00D4E50320615A0D00B15A0D00DF
:1042BC002DE9F04F85B01F46BDF93880BDF83C3074
:1042CC00A8EB0209A7EB010AB9F1000FB8BFC9F1BD
:1042DC000009BAF1000FB8BFCAF1000AD1458346F4
:1042EC000C46154604DD3A462C4647460D4690468C
:1042FC00BC4205DD2A464546904622463C461746BA
:10430C003E1BB2B20092A8EB0502002AB8BF524283
:10431C000192C6F3C03202FA86F64545B4BF0122BB
:10432C004FF0FF3276100292BC421CDCDBF800200E
:10433C000393D145D2F81880C7BF294622462A4696
:10434C0021465846C047019A039BB61AB1B236B201
:10435C00002E05DA029A1544009A56182DB236B280
:10436C00013424B2E0E705B0BDE8F08F704710B41B
:10437C0004682469A4465DF8044B604730B40468B3
:10438C00BDF808500295A46BA44630BC604730B40D
:10439C000468BDF808500295E46BA44630BC604735
:1043AC0070B4BDF90C50BDF810600468CDE903562B
:1043BC00246CA44670BC60472DE9F3411C4603688D
:1043CC00BDF820805B6905461646013C34440F4617
:1043DC0024B298472B68CDF8048000949C6A284638
:1043EC003B4632463946A0472B68DB6A284602B06A
:1043FC00BDE8F04118472DE9F3411D460368BDF8AF
:10440C0020805B69044617460E469847CDE9007834
:10441C0022686B1E3344956A20461BB23A463146DD
:10442C00A8472368DB6A204602B0BDE8F041184774
:10443C002DE9F3471E460368BDF928905B69BDF86A
:10444C002C800C460546174698472644B4422B68E8
:10445C000BDACDF80080D3F820A021464B463A4623
:10446C0028460134D04724B2F0E7DB6A284602B074
:10447C00BDE8F047184713B502680191B0F90E106A
:10448C000091146CB0F90C3000221146A04702B018
:10449C0010BD2DE9F3471D460368BDF82C805B6900
:1044AC00BDF9289004460F46164698472368CDF868
:1044BC000080D3F824A032462B4639462046D047FC
:1044CC002368CDF8008009F1FF323244D3F824A0E0
:1044DC0039462B46204612B2D0472368CDF80080CF
:1044EC00D3F820A032464B4639462046D0476B1EA7
:1044FC00D9192368CDF800801D6A20464B463246F8
:10450C0009B2A8472368DB6A204602B0BDE8F04731
:10451C00184770472DE9F74399421646BDF92870A4
:10452C00BDF82C90026880460D461C4613D1BE4245
:10453C00C8BF3346CDF82890C4BF3E461F467B1CEF
:10454C00946B9B1B1BB2324629464046A44603B0D3
:10455C00BDE8F0436047BE420AD19942C2BF0B4648
:10456C0025461C46631CCDF82890D46B5B1BE9E7F1
:10457C0053699847CDE90079D8F8003040469F6AD6
:10458C00324623462946B847D8F80030DB6A404605
:10459C0003B0BDE8F043184701F00303B0F90A205B
:1045AC008376C907B0F9083059BF8381C2818281F3
:1045BC00C381704730B54281C281074A074D0181E2
:1045CC00002481814FF0FF31C0E905124460056081
:1045DC0004610477046230BD01010001507C0D00C0
:1045EC002DE9F04F89B0CDE902120268BDF948807F
:1045FC000493BDF94C3052690593BDF850A00446A4
:10460C00904718F107024FF0000648BF08F10E0260
:10461C004FEAE20B01963546039B019ABDF9041053
:10462C009A18059B8B4212B227DD049B33444FF042
:10463C00000906930FFA89F080451FFA89F117DDFE
:10464C004F0705BF069BC0106D001D5C18BFEDB277
:10465C002B060AD5029B206807921944836909B27C
:10466C001F4620465346B847079A09F10109E1E76E
:10467C00019B013301935E44CEE72368DB6A20463D
:10468C0009B0BDE8F04F18472DE9F04F2DED028B26
:10469C0091B01646026ABDF874809DF878509DF86A
:1046AC007C4003911F46BDF8703004938346002A6A
:1046BC0040F0C580B0F90C308B4240F34C81B0F91E
:1046CC000E30B34240F34781062313FB0513002B36
:1046DC0040F3418106EBC403002B40F33C81037F84
:1046EC001BB9AF2F84BF0137FFB2DBF8003058463F
:1046FC005B6998470522099200220592984A07EBBC
:10470C008703D3180C93B3B20693059A0C9B9B5C4E
:10471C000793ABB20B93BDF80C300893039B02FBD1
:10472C0005F919FA83F90FFA89F308EE103A082300
:10473C000A93039B02EB030A4FF000090FFA8AFA63
:10474C00079ADBF80030D20752D5012D1FFA89F2F7
:10475C003ED1012C3CD19B6906991F46049B0A440F
:10476C0012B251465846B84709F101034FFA83F982
:10477C00079B5B0807930A9B013B13F0FF030A930B
:10478C00DED1059F01377BB20593099B013B13F0EA
:10479C00FF030993B9D1049B43450FD0012DDBF8DE
:1047AC0000303BD1012C39D10899CDF8008005316E
:1047BC001C6A3246082309B25846A047DBF8003081
:1047CC00DB6A584611B0BDEC028BBDE8F04F1847C0
:1047DC00069914FB02F20A44049901910094DB69D6
:1047EC0018EE101A1F4612B22B465846B847BBE7B4
:1047FC00049A4245B8D0012D1FFA89F207D1012C39
:10480C0005D19B6906991F460A444346A8E70699B9
:10481C00CDF8048014FB02F20A44DFE70B9ACDF8C2
:10482C00048002EB8201089AE4000A4411460094C9
:10483C00DC6932462B4609B25846A047BEE7137ACC
:10484C00516812680D92FF1AFFB201EBC70331F8E1
:10485C00372006929A780992DA780B92012D93F907
:10486C00052093F906A00A9201D8012C57D9BDF95D
:10487C00283008930FFA8AF30793DBF80030584678
:10488C005B699847B3B24FF000080E931AFA86F39F
:10489C00C14647460F930B9B9F428FD2079B0E9AA4
:1048AC003B4403FB0423002205920F9A1BB202EB3C
:1048BC00070A08EE103A0FFA8AFA4346099A059944
:1048CC00914241D25A1CD2B25B070C9207D1069B83
:1048DC0006990D9A01339BB212F80190069319F0C8
:1048EC00800F12D0012DDBF80030BDF80C101AD15E
:1048FC00012C18D10A9A9B691144059A11441E4641
:10490C005246049B09B25846B047059E0136F3B295
:10491C004FEA490905935FFA89F90C9BCEE700230E
:10492C00CDE90733A9E70598089A024402FB051163
:10493C00049ACDE90042DB6918EE102A1E4609B232
:10494C002B465846B047E0E7099B013798445FFA7D
:10495C0088F8FFB29FE711B0BDEC028BBDE8F08F79
:10496C0047770D00F0B5026A85B004460B46002A65
:10497C0034D10A2908D1438A0282427E03EBC20356
:10498C006382012005B0F0BD0D29FAD0E17E007ED6
:10499C00657E71B1B4F91060062111FB0061B4F9A8
:1049AC000C60B142C1BFB4F91210228201EBC502F6
:1049BC006282E28A0192A28A0092CDE90205B4F9E0
:1049CC001220B4F910102046FFF75EFE237E228AD7
:1049DC0003EB430302EB43032382D2E70A2907D1FB
:1049EC0000230382937A417E428A01FB0323C7E7AB
:1049FC000D29C6D0157AA942C3D3517A9942C0D396
:104A0C0051685D1BEDB201EBC505AF782FB3E978AA
:104A1C0019B3E17E007E667E91B195F9051039449B
:104A2C00B4F9107000FB0171B4F90C70B94207DDD8
:104A3C0000272782B4F91210927A02FB06126282C6
:104A4C00E28A0192A28A0092CDE90206B4F9122000
:104A5C00B4F910102046FFF717FE2979237E228A1D
:104A6C0001FB0323B8E7012938BF01210176417608
:104A7C007047704710B51021044602F0D4FC204654
:104A8C0010BD000073B5044608462279A36832B104
:104A9C00A3B90B4902B0BDE8704001F067BD094AEB
:104AAC00267B094D0949647B012E18BF2946CDE9A7
:104ABC0000140749FFF71CFB02B070BD054AEFE775
:104ACC00B17C0D00A87C0D00AD7C0D00A97C0D0007
:104ADC00C77C0D00A07C0D0010B5044B0360044690
:104AEC00C06A08B101F0ECFA204610BDA0810D009F
:104AFC0010B50446FFF7F0FF2046502102F093FC5E
:104B0C00204610BD002910B54BDBB0F90C408C428F
:104B1C0047DD002A45DBB0F90E40944241DD847E2E
:104B2C00022C1FD0032C26D0012C04D10489D24393
:104B3C0014440A4621B2012B23D0022B32D083BB62
:104B4C00002A13460489C06AB8BFD31DDB1013FBBF
:104B5C00041102F0070201239340425C22EA030293
:104B6C0042541EE00489C94321444489D24322445F
:104B7C0009B212B2DFE74489C9430C44114622B290
:104B8C00D9E7002A04891346B8BFD31DDB1013FBE9
:104B9C000411C36A02F0070001228240585C0243F0
:104BAC005A5410BD002A13460489C06AB8BFD31DDD
:104BBC00DB1013FB041102F00702012303FA02F2CB
:104BCC00435C5A40CCE710B5044690F936000121FD
:104BDC0080B202F0B6FB606A18B1BDE8104001F07B
:104BEC0066BD10BD70B504461D460026FFF7E2FCFD
:104BFC00114B2360666215B902F0E8FB0546FF23F2
:104C0C0084F8333084F836309DF9103084F837301E
:104C1C000A4BA363012384F83C30059BA3644FF635
:104C2C00FF72069BA286C4E90A562664A4F8446067
:104C3C00E364204670BD00BFA0810D00EC7C0D002C
:104C4C00F8B50446806A0D4690B194F9301001F025
:104C5C0011FBA06A036800219B689847A06A03684F
:104C6C0029469B689847A06ABDE8F84001F009BB4B
:104C7C0094F93530014698B202F063FB606A20B1BA
:104C8C002946BDE8F84001F099BD0826802794F923
:104C9C00330005EA070180B202F053FB94F93400AB
:104CAC00012180B202F04DFB94F93400002180B256
:104CBC0002F047FB013E4FEA5707E8D1F8BD38B583
:104CCC000446806A0D4680B1A16C01F0C5FA002D36
:104CDC00204614BFA721A621FFF7B2FFA06A88B116
:104CEC00E16CBDE8384001F0B7BA606A18B104F164
:104CFC00380101F0F5FC94F93600002180B202F085
:104D0C0020FBE4E72046BDE83840FFF75CBF2DE907
:104D1C00F8430446806A0D468F1840B394F930105E
:104D2C0001F0A8FAA06A036800219B689847012645
:104D3C00BD42A06A17D01F2E0CD901F0A2FA94F92B
:104D4C003010A06A01F096FAA06A036800219B68F3
:104D5C0098470126A06A15F8011B036801369B6869
:104D6C009847F6B2E4E7BDE8F84301F08ABA94F943
:104D7C003530014698B202F0E4FAAF4222D0606AB4
:104D8C0015F8019B18B1494601F018FDF5E7082606
:104D9C004FF0800894F9330009EA080180B202F060
:104DAC00D0FA94F93400012180B202F0CAFA94F9D5
:104DBC003400002180B202F0C4FA013E4FEA5808D8
:104DCC00E8D1DAE7BDE8F883B0F90A30DA1D48BF5C
:104DDC0003F10E02B0F90830C06AD2105A43002118
:104DEC0002F054BC2DE9FF411E46C36A9DF8288091
:104DFC0004460F461546B3B12046FFF7E5FFB4F95C
:104E0C000A00B4F9081020281FDC20230122CDE968
:104E1C000132203873237339009300EBD070894B27
:104E2C0001EBD1711FE0B0F90A30D81D48BF03F176
:104E3C000E00B4F90830C010584301F039F9E062A3
:104E4C000028D9D104B0BDE8F08140234FF0010C0B
:104E5C00CDE9013C52234038523900937A4B00EB98
:104E6C00D07001EBD17140F34F0241F34F0120465A
:104E7C00FFF7B6FBA06A84F83170002878D0002DBB
:104E8C0074D1B4F90A30202B0CBF3C253D2584F895
:104E9C003050B8F1000F01D001F0E2F9FEB194F9F5
:104EAC00370000281BDB012180B202F039FA94F99B
:104EBC003700012180B202F044FA012001F028F9F8
:104ECC0094F93700002180B202F03BFA0A2001F07D
:104EDC001FF994F93700012180B202F032FAA06A6E
:104EEC00002874D0A16C01F0B7F904225749204670
:104EFC00FFF70DFFA17A0139C9B22046FFF7A0FEDA
:104F0C00534904222046FFF702FF94F93130012B5C
:104F1C000CBF102114212046FFF792FE04224D49AC
:104F2C002046FFF7F4FEA3684B4A93425CD14B49F1
:104F3C0004222046FFF7EBFED9212046FFF780FE26
:104F4C0094F93130012B0CBF2221F1212046FFF7BF
:104F5C0077FE204642490622FFF7D9FEA06A0028B8
:104F6C0063D0E16C01F078F901206BE76DB28EE74C
:104F7C0094F93500012180B202F0D2F994F936008F
:104F8C00012180B202F0CCF994F93600012180B2F3
:104F9C0002F0D7F9656A3DB1B8F1000F3FF47EAF6E
:104FAC00284601F073FB79E794F93300012180B2B4
:104FBC0002F0B6F994F93400012180B202F0B0F994
:104FCC0094F93400294680B202F0BBF966E7606AB6
:104FDC0018B104F1380101F083FB94F9360000217B
:104FEC0080B202F0AEF980E71E4A93420ED11E4900
:104FFC0003222046FFF78BFE94F93130012B0CBFB6
:10500C009F21CF212046FFF71BFE95E7174A9342BD
:10501C0092D1174903222046FFF779FE94F93130DB
:10502C00012B0CBF1021AF21ECE794F936000121C4
:10503C0080B202F086F9606A002895D001F037FB47
:10504C0092E700BFB87F0D00F87C0D0000820D00C8
:10505C0004820D0008820D008000200012820D00D9
:10506C000C820D008000400016820D0060001000C4
:10507C0019820D0070B5002ABDF810503DDBB0F957
:10508C000A40944239DD0029BEBF5B181BB20021D7
:10509C00B0F90840CE18A642C4BF631A1BB2002B4D
:1050AC002BDDC06AD61014FB0611014402F0070078
:1050BC0001228240012DD2B216D0022D0BD0E5B9BF
:1050CC00D243D2B20B44994217D011F8010B1040C5
:1050DC0001F8010CF7E70B4499420ED011F8010BC3
:1050EC00504001F8010CF7E70B44994205D011F838
:1050FC00010B104301F8010CF7E770BDF0B5002966
:10510C00BDF8146076DBB0F90850A94272DA002AB7
:10511C00BCBFD21813B2B0F90A40B8BF0022D718DE
:10512C00A742C4BFA31A1BB2002B63DDC2F3C40495
:10513C00C76A15FB041112F00702DBB207EB01047E
:10514C0023D0C2F10802D2B22C4D93423CBF4FF097
:10515C00FF0CA2EB030EAD5C3CBF4CFA0EFC0CEA50
:10516C000505012E07D0022E2ED04EB917F801C01E
:10517C002CEA050503E017F801C045EA0C057D543F
:10518C00934237D3B0F908100C449A1AD2B2072ABA
:10519C000ED9022E1DD113462178C9432170083B2C
:1051AC00B0F90810DBB2072B0C44F5D802F007025B
:1051BC0002B3134B012E9B5C19D0022E1BD0CEB91F
:1051CC00227822EA030314E017F801C085EA0C05E3
:1051DC00D5E7002E14BFFF25002513462570083B8C
:1051EC00B0F90810DBB2072B0C44F7D8DEE72278B5
:1051FC0013432370F0BD22785340FAE7F0810D0081
:10520C00F8810D0070B41446827EBDF80C60022A41
:10521C000DD0032A18D0012A11D10289E443144479
:10522C0024B203960A46214670BCFFF767BF428939
:10523C000589E44319441444691A24B209B203964B
:10524C00224670BCFFF716BF45891944691A09B28A
:10525C00E7E730B41446827EBDF80850022A0DD020
:10526C00032A18D0012A11D1E2180489A41A24B2F5
:10527C0002950A46214630BCFFF7FCBE0289C943A1
:10528C001144E2184489A41A09B224B202952246A8
:10529C0030BCFFF733BF4289C943114409B2E7E779
:1052AC002DE9F8430446806A002842D0A16C00F036
:1052BC00D3FF474905222046FFF729FD217A013902
:1052CC002046C9B2FFF7BCFCB4F90A30DE1D48BF5A
:1052DC0003F10E06D4E90A052389F61013FB06F632
:1052EC0015FA86F600283AD094F9301000F0C2FF77
:1052FC00A06A036840219B6898470127B542A06AC1
:10530C0024D01F2F0CD900F0BCFF94F93010A06AE8
:10531C0000F0B0FFA06A036840219B689847012702
:10532C00A06A15F8011B036801379B689847FFB208
:10533C00E4E7606A18B104F1380101F0D1F994F98D
:10534C003600002180B201F0FCFFB2E700F099FFBB
:10535C00A06A78B3E16CBDE8F84300F07DBF94F926
:10536C003500012180B201F0ECFFB542F0D0606A4B
:10537C0015F8019B18B1494601F020FAF5E708270A
:10538C004FF0800894F9330009EA080180B201F06B
:10539C00D8FF94F93400012180B201F0D2FF94F9C6
:1053AC003400002180B201F0CCFF013F4FEA5808D5
:1053BC00E8D1DAE794F93600012180B201F0C1FF9F
:1053CC00606A18B1BDE8F84301F071B9BDE8F88323
:1053DC001C820D0000210A22C0E900127047002334
:1053EC0010B50446C171837188B201F0C3FF08B1D6
:1053FC000323A37100F020FC206010BD38B50C46CF
:10540C0005461146A0B201F08BFF21462846BDE8A7
:10541C003840FFF7E4BF38B50446C07901F0AAFF65
:10542C00A579003825F0080318BF0120C5F3400505
:10543C008542A3710AD000F0FFFBA379206083F0B2
:10544C000203A371A079C0F3C00038BD00F0F4FBD7
:10545C002368C01AA3889842F4D3A37903F00103FC
:10546C00AB42EFD000F0E8FBA379206083F001039E
:10547C0043F00803E5E791F85C3010B50446016091
:10548C0013B1886D00F0A8FB204610BD10B5036861
:10549C0093F85C20044612B1986D00F0A5FB2046F1
:1054AC0010BDF8B51F469DF8243004460D4616462F
:1054BC002BB1012380F85C30583000F07DFB089B49
:1054CC0023630023636306B1A66425B1294604F166
:1054DC00380001F0D8F9069B2365079BE069A4F816
:1054EC004C70FF2BB8BFFF23A4F8543008B1FEF763
:1054FC00D0FDB4F85400FEF7C8FDE061F8BD000023
:10550C002DE9FF4104460025174698460E4601F04A
:10551C0047FC0D49E56104F1380001F0A0F99DF854
:10552C002830A564CDE90283FF220F23CDE9003298
:10553C00204684F85C503B462A463146FFF7B1FFC3
:10554C00204604B0BDE8F081A87C0D0010B50446DF
:10555C00204601F081FB0028FAD0204601F0B5FA74
:10556C00C0B210BD2DE9F0470546C4690F46FFF7E0
:10557C00EDFF2070EB6993F800A04FF001090AF0E1
:10558C00F00A4FF000084C462846FFF7DFFF26468E
:10559C00EB69985500F07F0313FB09F39844013431
:1055AC000306A4B21FFA88F84FEAC919ECD4631E9B
:1055BC00BAF1300F3B7024D12846EF69FFF7C6FFD4
:1055CC0038552846EF69F41CFFF7C0FF0236B6B217
:1055DC00A4B2B8550226B6B2B1462746C14512D27E
:1055EC002846FFF7B3FFB5F85430BB4288BFEB69D0
:1055FC0009F1010988BFD8550137BFB21FFA89F9E3
:10560C00ECE70026E7E7A8EB0600B0452CBF064602
:10561C0000263444B5F85400A4B2A0422CBF204656
:10562C000020BDE8F087F7B58C461E461D460746A0
:10563C000023AE4602A805F07F01BEF17F0F03F1F7
:10564C000104034488BF41F08001BEF17F0F4FEA93
:10565C00D515E4B203F8041C10D8C4F10403D11816
:10566C0002F803C0C4F10503134401A805329342A8
:10567C0006D010F8015B03F8015BF8E72346D8E786
:10568C00721C2244384601F04AF9054600F0D4FA5F
:10569C00621C78623244A8B2131A5842584103B0C3
:1056AC00F0BD13B50446014601A8FFF7E4FEE3691B
:1056BC00E0221A70E36900225A70E1690222204646
:1056CC0001F02DF9204601F021FB00F0B5FAC4E9F8
:1056DC00090001A8FFF7DAFE02B010BD0233F0B5E5
:1056EC00044698B20023CD5C55B1B4F854608642A0
:1056FC0003F1010704D9461C15543B46B0B2F2E73E
:10570C0099B2441A2244091202F8021C02F8013C14
:10571C00F0BD38B5044601F018F9002814BF012576
:10572C00002502D1204601F0F1FA284638BD73B5A8
:10573C0004460E46FFF7EDFF0546C8B1214601A809
:10574C00FFF799FEE36962221A70E36902225A702C
:10575C00E36932129A70E369DE70E1690422204633
:10576C0001F0DDF8051E01A818BF0125FFF78EFE1C
:10577C00284602B070BD73B504460E46FFF7C9FF4C
:10578C000546C8B1214601A8FFF775FEE3697222F0
:10579C001A70E36902225A70E36932129A70E36953
:1057AC00DE70E1690422204601F0B9F8051E01A85B
:1057BC0018BF0125FFF76AFE284602B070BD2DE91F
:1057CC00F04F2DED028B87B000AF0446FFF7A1FF21
:1057DC008146F8B1214607F11400FFF74CFE00F0AA
:1057EC002BFA226D4FF47A735343A26A821A9A42AF
:1057FC00064603D8626A821A934221D294F82C305E
:10580C007BB1204601F082FA4FF0000907F1140039
:10581C00FFF73CFE48461C37BD46BDEC028BBDE88D
:10582C00F08FE269C0211170E2695370E1690222C4
:10583C00204601F074F8C4E90966012384F82C3081
:10584C00204601F009FA0028E0D007F113012046A8
:10585C00FFF788FE83460028D8D0E369A662197842
:10586C0001F0F002302A7FD1D4F830A0BAF1000F49
:10587C00CCD097F813C06A4608EE102A03EB0C0242
:10588C005578917801EB05218DB205F10802694636
:10589C00D208A1EBC20295460CF10302FA6003EBAD
:1058AC00020E0DEB05026846C7F808D07A60D7E9FE
:1058BC0001218A4206D00A461EF8018B02F8018BA0
:1058CC00BA60F4E70022425593F80080F96808F0BA
:1058DC000608ABEB0C02033AB8F1020FA2EB05027F
:1058EC00294425D113F801E01944023A91F801B08A
:1058FC000CF10501294419440BEB0E2BD047E3693D
:10590C0040221A70E3691FFA8BFB83F80180E3696C
:10591C004FEA2B229A70E36983F803B0E169042201
:10592C00204600F0FCFF666218EE103A9D466DE7CB
:10593C00B8F1040F15D113F801E01944023A91F8AB
:10594C0001B00CF10501294419440BEB0E2BD04787
:10595C00E36950221A70E36902221FFA8BFB5A701A
:10596C00D5E71944D047DFE7502A08D19A78D9787F
:10597C0001EB022189B22046FFF7D9FE46E7402A07
:10598C0012D1626B002A3FF441AFBBF1040F7FF4DC
:10599C003DAF11F0060F7FF439AF9978D87800EB52
:1059AC00012080B2904731E7602A08D19A78D978E3
:1059BC0001EB022189B22046FFF7DDFE26E7702AB3
:1059CC00DFD0902A3FF422AFC02A0AD1D0221A701D
:1059DC00E36900225A70E1690222204600F09FFF21
:1059EC0014E7D02A04BF002384F82C300EE7F7B557
:1059FC0004460F461646FFF78CFE054610B32146AB
:105A0C0001A8FFF738FD238C01339BB2EBB1238443
:105A1C00238CE2691B125371E369228C9A71E2693F
:105A2C00072339462046FFF759FEE3691E54043814
:105A3C0083B2E26982212046FFF7F5FD054601A8F5
:105A4C00FFF724FD284603B0F0BD0123DFE7002259
:105A5C00FFF7CDBF38B50546FFF75BFE10B1284602
:105A6C00FFF71FFEE86908B1FEF713FB05F13800DC
:105A7C0000F0AAFEAC690A4B2B607CB16368013B59
:105A8C0063605BB9236820469B689847A368013B19
:105A9C00A3601BB923682046DB689847284638BDAD
:105AAC0080830D0010B5064B03600446006D08B1F1
:105ABC0000F08AF82046FFF70FF8204610BD00BF13
:105ACC002C820D0010B50446FFF7ECFF2046702128
:105ADC0001F0A9FC204610BD30B585B004460D463A
:105AEC0001F074FC104A1149CDE901214FF0FF324D
:105AFC0080210346009220462022FFF773F80C4BBE
:105B0C0023600023C4E9143504F15800FFF762FC4C
:105B1C0004F16000FFF75EFC04F16800FFF75AFC2B
:105B2C00204605B030BD00BF801A0600A0860100DB
:105B3C002C820D0013B50446503000F03DF8636D17
:105B4C00D90705D50222042104F15800FFF756FCB1
:105B5C00636D9A0705D50022032104F16000FFF75D
:105B6C004DFC636D5B0705D50222114604F16800FC
:105B7C00FFF744FC012300933C2202212046FFF74F
:105B8C0031F902B010BD10B5436DD907044602D5EA
:105B9C005830FFF740FC636D9A0703D504F16000A1
:105BAC00FFF739FC636D5B0705D504F16800BDE8B0
:105BBC001040FFF730BC10BD08B5024B1B681B6BC7
:105BCC00019308BD4802030008B5024B1B685B6BD0
:105BDC00019308BD4802030008B5024B1B689B6B80
:105BEC00019308BD4802030008B5024B1B681B6CEF
:105BFC00019308BD4802030008B5024B1B685B6C9F
:105C0C00019308BD4802030008B5024B1B689B6C4E
:105C1C00019308BD4802030008B5024B1B685B6882
:105C2C00019308BD1802030008B5024B1B68DB6822
:105C3C00019308BD1802030008B5024B1B685B6991
:105C4C00019308BD1802030008B5024B1B689B6842
:105C5C00019308BD2C02030008B5024B1B68DB68DE
:105C6C00019308BD2C02030008B5024B1B681B698D
:105C7C00019308BD2C02030008B5024B1B685B693D
:105C8C00019308BD2C02030008B5024B1B681B686E
:105C9C00019308BD2802030008B5024B1B68DB68A2
:105CAC00019308BD2802030008B5024B1B689B69D1
:105CBC00019308BD2802030008B5024B1B68DB6981
:105CCC00019308BD2802030008B5024B1B681B6A30
:105CDC00019308BD2802030008B5024B1B685B6AE0
:105CEC00019308BD2802030008B5024B1B689B6A90
:105CFC00019308BD2802030008B5024B1B68DB6A40
:105D0C00019308BD2802030008B5024B1B681B6BEE
:105D1C00019308BD2802030008B5024B1B685B6B9E
:105D2C00019308BD2802030008B5024B1B681B6CCD
:105D3C00019308BD2802030008B5024B1B685B6980
:105D4C00019308BD6C02030008B5024B1B685B692C
:105D5C00019308BD6402030008B5024B1B681B6A63
:105D6C00019308BD6402030008B5024B1B689B6AD3
:105D7C00019308BD6402030008B5024B1B689B68C5
:105D8C00019308BD6802030008B5024B1B68DB6871
:105D9C00019308BD6802030008B5024B1B689B69A0
:105DAC00019308BD3802030008B5024B1B68DB6980
:105DBC00019308BD3802030008B5024B1B681B6A2F
:105DCC00019308BD3802030008B5024B1B689B6A9F
:105DDC00019308BD3802030008B5024B1B681B6B0E
:105DEC00019308BD3802030008B5024B1B689B6B7E
:105DFC00019308BD3802030008B5024B1B681B68F1
:105E0C00019308BD3002030008B5024B1B685B69A7
:105E1C00019308BD3002030008B5024B1B68DB6917
:105E2C00019308BD3002030008B5024B1B681B6AC6
:105E3C00019308BD3002030008B5024B1B685B6A76
:105E4C00019308BD3002030008B5024B1B68DB6BE5
:105E5C00019308BD3002030008B5024B1B681B6C94
:105E6C00019308BD3002030008B5024B1B685B6C44
:105E7C00019308BD3002030008B5024B1B681B6878
:105E8C00019308BD3C02030008B5024B1B68DB689C
:105E9C00019308BD3C02030008B5024B1B681B694B
:105EAC00019308BD3C02030008B5024B1B685B69FB
:105EBC00019308BD3C02030008B5024B1B689B69AB
:105ECC00019308BD3C02030008B5024B1B68DB695B
:105EDC00019308BD3C02030008B5024B1B681B6A0A
:105EEC00019308BD3C02030008B5024B1B689B6A7A
:105EFC00019308BD3C02030008B5024B1B681B68EC
:105F0C00019308BD4C02030008B5024B1B685B688B
:105F1C00019308BD4C02030008B5024B1B681B69BA
:105F2C00019308BD4C02030008B5024B1B685B696A
:105F3C00019308BD4C02030008B5024B1B689B691A
:105F4C00019308BD4C02030008B5024B1B68DB69CA
:105F5C00019308BD4C02030008B5024B1B681B6A79
:105F6C00019308BD4C02030008B5024B1B685B6B28
:105F7C00019308BD6002030008B5024B1B681B6D42
:105F8C00019308BD6002030008B5024B1B685B68F7
:105F9C00019308BD2002030008B5024B1B685B6926
:105FAC00019308BD2002030008B5024B1B68DB6A95
:105FBC00019308BD2002030008B5034B1B68D3F8FE
:105FCC008830019308BD00002002030008B5034B84
:105FDC001B68D3F89430019308BD00002002030025
:105FEC0008B5024B1B68DB6B019308BD4402030030
:105FFC0008B5024B1B685B68019308BD40020300A7
:10600C0008B5024B1B689B68019308BD4002030056
:10601C0008B5024B1B68DB68019308BD4002030006
:10602C0008B5024B1B681B69019308BD40020300B5
:10603C0008B5024B1B685B69019308BD4002030065
:10604C0008B5024B1B689B69019308BD4002030015
:10605C0008B5024B1B68DB69019308BD40020300C5
:10606C0008B5024B1B681B6A019308BD4002030074
:10607C0008B5024B1B681B6B019308BD4002030063
:10608C0008B5024B1B685B6B019308BD4002030013
:10609C0008B5024B1B681B6C019308BD4002030042
:1060AC0008B5024B1B685B6C019308BD40020300F2
:1060BC0008B5024B1B681B68019308BD1C0203004A
:1060CC0008B5024B1B685B68019308BD1C020300FA
:1060DC0008B5024B1B689B68019308BD1C020300AA
:1060EC0008B5024B1B685B6A019308BD1C020300D8
:1060FC0008B5024B1B68DB6B019308BD1C02030047
:10610C0008B5024B1B685B6C019308BD1C020300B5
:10611C000021FFF741BF10B50446006808B1FFF736
:10612C0073FD204610BD10B58368044613B10322DD
:10613C0001469847204610BD10B5064C002320465A
:10614C002360FFF759FD2046034A0449BDE810407F
:10615C0001F064B950E6032014E5032023610D001F
:10616C00002240681146FFF77BBF002240681146B1
:10617C00FFF786BF40680022FFF77ABF4068002215
:10618C0081F00101FFF764BF002340681A461946ED
:10619C00FFF756BF002340681A461946FFF748BF61
:1061AC00002240681146FFF73BBF002240681146B1
:1061BC00FFF726BF406800220221FFF729BF00230A
:1061CC0040681A46FFF714BF024B03225A60024A7A
:1061DC001A60704754E603208C820D007047F8B5A6
:1061EC00064615460C468F18BC4206D0336814F888
:1061FC00011B9B6830469847F6E72846F8BD007CA3
:10620C000022FFF761BD007C0021FFF765BD007C1B
:10621C000021FFF769BD007C0021FFF76DBD007CFC
:10622C000021FFF771BD10B51421044601F0FBF8F5
:10623C00204610BD10B54FF47A7304460846002171
:10624C00C4E90113034B236020741146FFF76CFD66
:10625C00204610BDC8820D00007C0022FFF714BD43
:10626C000023007C1A461946FFF716BD007C00225D
:10627C00FFF71ABDC9B2FFF7F9BF007C0022FFF788
:10628C001BBD0121FFF7F9BF704710B5182104465B
:10629C0001F0C9F8204610BDF0B5037D062B8DB07A
:1062AC000E4600F104074FF0000412D000F108056F
:1062BC0015F8011D0A22304600F075F9AF4204446E
:1062CC0019D0002CF4D02E21304600F053F90444A0
:1062DC00EEE72F236A4639460A208DF80040FFF777
:1062EC0033FD684601F008FA33680246DB686946FC
:1062FC0030469847044620460DB0F0BD10B5054B0E
:10630C000446112240F8043B002101F0BFF920465D
:10631C0010BD00BFF0820D000346074A10B543F8CC
:10632C00042B01F1100251F8044B43F8044B914239
:10633C00F9D10A781A7010BDF0820D00037D042B80
:10634C0004D14068003818BF01207047062B07D1D4
:10635C0043683BB983682BB9C3681BB90069F1E783
:10636C00002070470120704710B59DF8084044EAA2
:10637C00032343EA024242EA0161042341600375AC
:10638C0010BD000013B5054B0360CB7800938B78E0
:10639C004A780978FFF7E8FF02B010BDF0820D00D3
:1063AC00014B024A1A6070475CE60320FC820D0028
:1063BC00002340681A46FFF71BBE406800220221EA
:1063CC00FFF726BE002240681146FFF719BE0022D7
:1063DC0040681146FFF724BE002340681A46194650
:1063EC00FFF726BE002340681A461946FFF728BE61
:1063FC0040680021FFF74CBE40680021FFF750BEFB
:10640C004068002281F00101FFF722BE40680022A3
:10641C00FFF72EBE002240681146FFF731BE002266
:10642C0040681146FFF71CBE2DE9F043002495B0DF
:10643C0016460D460746FFF761FF214618220EA8A7
:10644C00009401F023F94023CDE90C3421466B462E
:10645C000CAA3046FFF798FC044600284CD10246A3
:10646C0001216868FFF7DCFD02218046224668683E
:10647C00FFF7D6FD009E81462146002E3CD0002918
:10648C003AD17368022B03D00A2B11D0F669F4E7CA
:10649C00B8F1000F0AD0716906A8043107ADFFF7F7
:1064AC0071FF0FCD3C1D0FC42B6823704146EDE7E7
:1064BC00B9F1000F01D14946E8E77469102201A82F
:1064CC0001F0E4F806238DF8143001AD04F1080353
:1064DC001834186859682A4603C20833A342154673
:1064EC00F7D101A906A807ADFFF716FF0FCD3C1D8C
:1064FC000FC42B682370DEE70098FFF73DFC38468D
:10650C0015B0BDE8F0830000024B034A1A6000226C
:10651C005A60704760E6032008830D00F8B5064604
:10652C000D468F180024BD420CD0336815F8011BA2
:10653C009B6830469847031E01DB1C44F3E7002C94
:10654C0008BF1C462046F8BD13B50446084659B191
:10655C00019101F0D1F823680199DB6802462046CD
:10656C0002B0BDE81040184702B010BD08B5FFF7E7
:10657C00EBFF08BD03689B68184738B50D2105462D
:10658C00FFF7F8FF0A2104462846FFF7F3FF2044E3
:10659C0038BD38B50546FFF7D7FF04462846FFF748
:1065AC00ECFF204438BD30B58BB000238DF824307F
:1065BC00012A98BF0A2209AC0D46B1FBF2F101FB8E
:1065CC00125303F0FF03092B94BF30333733DBB284
:1065DC00AA4204F8013DEFD92146FFF7B5FF0BB0F5
:1065EC0030BD2DE9F04186B000AF05460E46381D92
:1065FC00142114463B60FFF773FD13280ED8391D88
:10660C002846FFF7A1FF04461EB12846FFF7B5FF49
:10661C00044420461837BD46BDE8F08100F108035C
:10662C0023F00703E846ADEB030D2246411C3B6803
:10663C006846FFF755FD69462846FFF785FF044677
:10664C00C546E1E710B50446FFF76DFD204610BDC9
:10665C000348044A04490023836000F0DFBE00BFF6
:10666C0068E6032014E5032051660D000021FFF7B6
:10667C00F3BB0021FFF7F8BB10B5044608462170A8
:10668C00FFF7CAFB00236360204610BD10B504461B
:10669C000078FFF7EBFF48B920784FF6FF71FFF752
:1066AC00ABFB2078BDE81040FFF7E3BF10BD0078CE
:1066BC00FFF7DFBF400830B5186000241868884227
:1066CC00E5B206D90134082C02D040081860F5E771
:1066DC000725024B5B5D137030BD00BF3C830D0082
:1066EC002DE9F04306468FB000780C46FFF7BEFF4D
:1066FC0000281BDB35781422002109A800F0C6FF06
:10670C000B23002209A92846ADF82430FFF794FB8F
:10671C009DF82D3013B19DF82C5055B10027B9467A
:10672C00B846012523795DB1C3B100200FB0BDE897
:10673C00F083DDF830809DF834909DF83570F1E7EA
:10674C00002B35D1A368434508D18DF820908DF8E6
:10675C002170BDF82020A3899A42E6D00023A168BD
:10676C008DF80F300A9804AB0DF10F02FFF7A2FF62
:10677C00217985B989B9A36843450ED38DF820904A
:10678C008DF82170BDF82020A3899A4205D1049B75
:10679C00434502D1C9E70029F9D100230193637B5A
:1067AC0000939DF80F20237B3078FFF74DFBBCE75F
:1067BC00CDE900552B462A460121F5E708B50078AE
:1067CC00FFF722FBC0B208BD10B504460068FFF706
:1067DC0077FC204610BD10B50446006808B1FFF7E1
:1067EC006FFC0023C4E90133236010BD38B50446A7
:1067FC000D4600680131FFF76BFC10B1C4E90005D0
:10680C00012038BD10B50368044623B143688B42A0
:10681C0001D3012010BD2046FFF7E8FF0028F9D076
:10682C00A368002BF5D122681370F2E737B50D463B
:10683C00114601920446FFF7E5FF019A28B920465C
:10684C00FFF7C9FF204603B030BDA260294620687F
:10685C0000F00EFF2268A3680021D154F2E7002358
:10686C0013B5C0E9003304468360037341B1084695
:10687C00019100F041FF019902462046FFF7D6FF37
:10688C00204602B010BD13B5044659B1084601911B
:10689C0000F032FF019902462046FFF7C7FF204661
:1068AC0002B010BDFFF797FFF9E710B5044600687A
:1068BC0018B1FFF705FC0023236010BD10B504468A
:1068CC00FFF7F3FF204610BD10B5094B094C02220F
:1068DC0000201A60084B2060A080A071A360FFF715
:1068EC0053FB2046054A0649BDE8104000F096BD12
:1068FC0084E6032078E603200000FFFF14E5032064
:10690C00C9680D0013B503688DF80710DC6B012204
:10691C004FF0FF330DF10701A04702B010BD10B4CA
:10692C000368DC6B4FF0FF33A4465DF8044B604703
:10693C0013B5134602688DF80710D46B0DF10701DF
:10694C000122A04702B010BD704738B543691A68E0
:10695C00002A054610DAB3F88620B3F884309A4240
:10696C000AD103681B699847044628B92B68284646
:10697C00DB6A9847204638BD0120FCE7436918685C
:10698C00C043C00F70477047064B994210B500F1D9
:10699C000C0405D0084600F04BFD002808BF00246D
:1069AC00204610BD7C820D0010B5AC21044600F0D1
:1069BC003AFD204610BDFDF76ABB2DE9F0414FF0C2
:1069CC00000886B01D46C0F8048004460E461746E3
:1069DC004146102202A800F059FE6B1C09D04FF45E
:1069EC007A70B5FBF0F3CDE9023800FB1353584332
:1069FC000490606910230093006802AB41F2050219
:106A0C0040F6FF71FFF7C8F9002807DAFFF770FBB3
:106A1C0003686360002006B0BDE8F0816069002364
:106A2C0000683A463146FFF7D7F9031EEEDB1846ED
:106A3C00F1E7000038B584690A4B036005467CB168
:106A4C006368013B63605BB9236820469B68984789
:106A5C00A368013BA3601BB923682046DB689847F9
:106A6C00284638BD80830D0010B50446FFF7E2FFC1
:106A7C0020461C2100F0D7FC204610BD70B54D6996
:106A8C00054B04468C3544F8043B06460FCD0FC429
:106A9C002B682370304670BDF0820D0010B5436931
:106AAC00B3F88620B3F884309A42044605D0636963
:106ABC00B3F884201344187910BD03681B699847F8
:106ACC000028F4D14FF0FF30F6E710B54369B3F866
:106ADC008620B3F884309A42044608D06369B3F830
:106AEC008420511CA3F884101344187910BD03683A
:106AFC001B6998470028F1D14FF0FF30F6E7F8B545
:106B0C0043691746B3F88620B3F884309A42054699
:106B1C000E4616D06969B1F88430B1F88640E41A93
:106B2C00BC4228BF3C46043322461944304600F090
:106B3C009FFD6A69B2F884302344A2F88430204661
:106B4C00F8BD03681B6998470028E3D14FF0FF3468
:106B5C00F5E742690023A2F884304269A2F8863036
:106B6C0070472DE9F0411F4603680C46DB6A8AB07A
:106B7C00054616469847237DD5F81480042B0CBF88
:106B8C0002200A2006220121FFF72EF9C8F8000086
:106B9C006B691B68002B08DA2B682846DB6A00241B
:106BAC00984720460AB0BDE8F0812846FFF7D1FF90
:106BBC00B7B1002303A9F8B20393ADF81030FFF777
:106BCC00BBF80028E8D1686906230093006803AB82
:106BDC0041F20B0240F6FF71FFF7DEF80028DBD123
:106BEC001C22002103A800F051FD237D042B1DD194
:106BFC004FF407733046ADF80C30FFF7B5F8ADF82D
:106C0C000E006068FFF7A8F804906B691C221868E6
:106C1C0003A9FFF7D1F80028BED104340FCC6D695D
:106C2C008C350FC523682B700124BAE740F61C2362
:106C3C003046ADF80C30FFF797F805AEADF80E0006
:106C4C00231D04F1140718685968324603C208332F
:106C5C00BB421646F7D1D8E730B54269B2F8863058
:106C6C008BB004462BB1B2F884209A4201D1FFF7C5
:106C7C0070FF61690868002818DBB1F886507F2D19
:106C8C0014D804310823C5F180022944FFF79CF87D
:106C9C00002813DD6369B3F886200AB9A3F88420B1
:106CAC006369B3F886201044A3F886006369B3F8CF
:106CBC008600B3F88430C01A0BB030BDFFF718FA59
:106CCC0003680B2BF2D0FFF713FA03680B2BEDD0F4
:106CDC0020230025CDE90235FFF70AFA036801935A
:106CEC00084B0949009302AA2B463220FFF744F9BE
:106CFC0063691868FFF758F863694FF0FF321A6040
:106D0C00D4E700BF4B830D0044830D0010B54369DD
:106D1C0004461868002801DBFFF746F863694FF05A
:106D2C00FF321A606069112200218C3000F0AEFC39
:106D3C002046BDE81040FFF70CBF10B500230446F9
:106D4C000160C0F884308830FFF7D8FA204610BDB7
:106D5C0073B500234FF47A72C0E901320E4A036115
:106D6C00026043610446AC200191FDF78CF9051ECD
:106D7C0005F10C0608D00123C5E90133074B019935
:106D8C002B603046FFF7D9FF2046C4E90565FFF7B5
:106D9C00E0FE02B070BD00BF80830D0064830D0067
:106DAC0010B54FF0FF310446FFF7D2FF204610BD5F
:106DBC0010B504460068002801DBFEF7F5FF2046FD
:106DCC0010BD0C30FFF7F4BF70B586B0064601ADB0
:106DDC006846FFF7D7FA0FCD341D0FC42B6823700C
:106DEC00304606B070BD00002DE9F04398460368AC
:106DFC0093B00D460024DB6A064617469847284692
:106E0C006B46224621460094FEF7BEFF054600283D
:106E1C0063D1009B002B4BD05B69002B48D006A89C
:106E2C00FFF76CFA009B5C696378022B04D1211D7F
:106E3C0006A8FFF7C9FF26E00A2B24D11122294608
:106E4C0001A800F023FCA368002B38D004F1080340
:106E5C000DF1040C183418685968624603C20833E3
:106E6C00A3429446F7D1062301A90CA88DF814303F
:106E7C00FFF752FA0DF1340CBCE80F0007AC0FC44D
:106E8C00DCF80030237006A8FFF758FA80B133689D
:106E9C0007ADD3F82090124B0C930FCD0DAC0FC453
:106EAC002B6823703A4643460CA93046C847054622
:106EBC000098FEF761FF284613B0BDE8F083E36845
:106ECC00002BC3D14FF6FF70D4F81090FEF744FF9F
:106EDC008145BBD104F11401AAE72546E8E700BFC0
:106EEC00F0820D00024B1A68024B1A60704700BF0B
:106EFC00ACE4032088E6032070474174704708B562
:106F0C00007CFEF7F1FF20EAE07008BD08B5007CBC
:106F1C00FEF7C2FF20EAE07008BD08B5007CFEF762
:106F2C00CBFF40EAE07008BD08B5007CFEF7BCFF63
:106F3C0040EAE07008BD007CFEF7C6BF37B5457C63
:106F4C0004462DB1207C03B0BDE83040FEF79CBF59
:106F5C00007C0191FEF7C8FF00280199F2DC28465D
:106F6C0003B030BD10B51421044600F05CFA204685
:106F7C0010BD000010B54FF0000C04460846114639
:106F8C004FF47A72C4E901C2044A226001222074CF
:106F9C0062741A46FEF770FF204610BDE8830D00A0
:106FAC0013B50E4C2178BFF35B8F11F0010112D198
:106FBC0020460191FDF77AF8019960B1084A094B16
:106FCC000948FFF7D7FF2046FDF775F8074A08492F
:106FDC00054800F023FA044802B010BD8CE60320EB
:106FEC0090E6032014E7032098E7032014E5032020
:106FFC00056F0D0041747047704708B50021007C87
:10700C00FEF79AFF40EAE07008BD08B50121007C4C
:10701C00FEF792FF40EAE07008BD08B5007CFEF771
:10702C0083FF20EAE07008BD08B5007CFEF774FF12
:10703C0020EAE07008BD13B50446007C0191FEF710
:10704C0073FF0028019901DC607C20B1207CFEF7E5
:10705C007BFF20EAE07002B010BD007CFEF77CBF25
:10706C0010B51421044600F0DEF9204610BD0000D6
:10707C0010B54FF47A73044608460021C4E9011395
:10708C00044B23600123207463741146FEF734FF14
:10709C00204610BD18840D00007C0022FEF734BF82
:1070AC0010B514220446002100F0F0FA204610BD61
:1070BC0010B5104C88B003A8FFF7F2FF2178BFF38E
:1070CC005B8F11F0010111D120460191FCF7EEFF0D
:1070DC00019958B103AA0848FFF7CAFF2046FCF7EC
:1070EC00EAFF064A0649044800F098F9024808B03D
:1070FC0010BD00BFACE70320B0E7032014E503206C
:10710C0005700D00002240681146FEF789BF002271
:10711C0040681146FEF7A4BF002240681146FEF7F6
:10712C00AFBF40680022FEF7A3BF4068002281F089
:10713C000101FEF78DBF002340681A461946FEF781
:10714C007FBF002340681A461946FEF771BF002224
:10715C0040681146FEF754BF406800220221FEF73A
:10716C0057BF002340681A46FEF742BF024B042269
:10717C005A60024A1A607047C4E7032048840D0025
:10718C00014B1860704700BFB0E4032008B50B4BEF
:10719C0043B1FFF78DFF03681B699847002801DD99
:1071AC00AFF30080064B43B1FFF7FAFE03681B698F
:1071BC009847002801DDAFF3008008BD00000000F7
:1071CC000000000008B5FFF7E1FFFEF735FD014BAD
:1071DC00186008BDD4E703200248034A0349121A79
:1071EC0000F046BA00F4032004F40320A0850D003F
:1071FC0007B5002300931A466FF07701FEF7E6FE01
:10720C0003B05DF804FB000007B543880A2B08D0D7
:10721C00502B0BD1094B1B684BB103B05DF804EB41
:10722C001847FFF7E5FF03B05DF804FB002300935C
:10723C001A466FF07701FEF7C9FEF4E7D0E703209A
:10724C0038B5124C1248134D0021FEF759FF236834
:10725C00AB42114B0CBF012200221A7002D0FFF777
:10726C00BBFF2560FEF7D8FC044600F017FA0B4B69
:10727C0013B12046AFF3008000210848FEF7B0FEA2
:10728C00BDE8384006480021FEF796BE00F4032006
:10729C008D710D001E1C279ACCE703200000000006
:1072AC0015720D00232813B502D9002002B010BDB1
:1072BC00A0F10B03022B1AD8174C2178BFF35B8F6C
:1072CC0011F001010BD120460191FCF7EFFE019961
:1072DC0028B11248FFF7D0F92046FCF7ECFE0F4B13
:1072EC001878FEF7A1FD0028DFD10120DEE7012888
:1072FC0009D800F06BF80021007CFEF70DFD80F042
:10730C000100C0B2D2E709380128EED8FFF748FED9
:10731C00007CFEF7E1FDF2E744E6032048E603209B
:10732C00232838B504460D460AD8FF2908D0FFF7A4
:10733C00B9FF28B129462046BDE83840FEF784BC89
:10734C0038BD38B504460D46FEF786FCFF2810D034
:10735C00062804D84D2323FA00F0C30709D420468D
:10736C00FFF7A0FF28B129462046BDE83840FEF7BC
:10737C007BBC38BD10B50446FEF76EFC031FDBB2B8
:10738C00012B08D92046FFF78DFF20B12046BDE820
:10739C001040FEF771BC002010BD000038B5002372
:1073AC00202543801423044603808560056106492B
:1073BC00284600F03AF804496060284600F035F899
:1073CC00E060204638BD00BF7C840D0030B50F4D09
:1073DC002978BFF35B8F11F0010487B013D12846D5
:1073EC00FCF764FE78B101A8FFF7D8FF01AA21468B
:1073FC000748FEF71FFF2846FCF75DFE054A0649C5
:10740C00034800F00BF8024807B030BDD8E7032062
:10741C00DCE7032014E50320E9610D000B4601466F
:10742C00184600F017B9FCF732BEFCF72EBE000070
:10743C00014900F0F9B800BF98840D007FB5002415
:10744C001023CDE90234036800949E698DF8044042
:10745C0015466B461268B0479DF8043003F00603DE
:10746C00062B03BF009B2B600120204604B070BD8F
:10747C000098904214BF01200620704710B5034BB2
:10748C000360044600F0CDF8204610BDD8840D00F2
:10749C0010B50446FFF7F2FF20460821FFF7C3FFA3
:1074AC00204610BD2DE9F0411F46DDE90834DDF81A
:1074BC00188098450646154607D1079900F0B4F890
:1074CC0018B165710020BDE8F0813946304600F0F6
:1074DC00ABF80028F6D00123C4F800802571A37105
:1074EC00F0E738B515461C4600F09EF820B108238D
:1074FC00E36006232560237138BD73B505460C4641
:10750C0001921E4600F090F850B9032E08D823685B
:10751C00019A5B692946204602B0BDE870401847C5
:10752C0002B070BD10B5034B03600446FFF7A6FF15
:10753C00204610BD38850D0010B50446FFF7F2FF4C
:10754C0020460C21FFF76FFF204610BDF7B5089FB2
:10755C00974205460E4614460AD0A868026808975A
:10756C00156A31462246AC4603B0BDE8F040604790
:10757C001946019300F058F8019B0028EDD0062025
:10758C0003B0F0BD2DE9F14F0D461946DDE90A4B6C
:10759C00DDE90CA681461746984600F045F890B1F7
:1075AC00002D3460377109DB61198A450CBF062147
:1075BC000121B171002001B0BDE8F08F0235F9D185
:1075CC000123B371F6E7544506D15946484600F0FD
:1075DC002BF808B17771EDE7D9F808000368CDE90D
:1075EC000CA6CDE90A4BDC693A4643462946A4462B
:1075FC0001B0BDE8F04F60472DE9F04107460C465D
:10760C0015461E46FFF76DFF48B9B86803689F69B9
:10761C002A4633462146BC46BDE8F0416047BDE8EA
:10762C00F081704700207047814208B50ED0406849
:10763C0003782A2B0CD049680B782A2B08BF013110
:10764C0000F050F8B0FA80F0400908BD0120FCE7CA
:10765C000020FAE710B5054C13462CB10A4601463A
:10766C000220AFF3008010BD2046FCE700000000B4
:10767C000A44914200F1FF3300D1704710B511F864
:10768C00014B03F8014F9142F9D110BD024403465E
:10769C00934200D1704703F8011BF9E738B50D4B45
:1076AC001D68AB6B04467BB91820FEF701FD0A4A36
:1076BC000A4BA863C0E90023094B83600B23838129
:1076CC0001220023C0E90423AB6B00221C615A6128
:1076DC0038BD00BFB0E403200E33CDAB34126DE6E1
:1076EC00ECDE050010F8012B11F8013B012A28BF34
:1076FC009A42F7D0D01A7047034613F8012B002A90
:10770C00FBD1181A013870471D400D0059400D006F
:10771C0081400D0085400D000000000025730074B1
:10772C00657374006D61646C696273006C61622EC8
:10773C0074686577636C2E636F6D00000000000049
:10774C003E5B4F5B3E3E6B4F6B3E1C3E7C3E1C18C3
:10775C003C7E3C181C577D571C1C5E7F5E1C001821
:10776C003C1800FFE7C3E7FF0018241800FFE7DB15
:10777C00E7FF30483A060E2629792926407F050571
:10778C0007407F05253F5A3CE73C5A7F3E1C1C08AE
:10779C00081C1C3E7F14227F22145F5F005F5F0673
:1077AC00097F017F006689956A606060606094A2C1
:1077BC00FFA29408047E040810207E201008082ADA
:1077CC001C08081C2A08081E101010100C1E0C1E79
:1077DC000C30383E3830060E3E0E0600000000001D
:1077EC0000005F00000007000700147F147F1424C2
:1077FC002A7F2A1223130864623649562050000847
:10780C00070300001C2241000041221C002A1C7F9F
:10781C001C2A08083E080800807030000808080878
:10782C0008000060600020100804023E5149453EEB
:10783C0000427F400072494949462141494D331865
:10784C0014127F1027454545393C4A49493141219D
:10785C001109073649494936464949291E00001481
:10786C0000000040340000000814224114141414C9
:10787C0014004122140802015909063E415D594E7B
:10788C007C1211127C7F494949363E414141227F8D
:10789C004141413E7F494949417F090909013E4126
:1078AC004151737F0808087F00417F41002040410F
:1078BC003F017F081422417F404040407F021C0260
:1078CC007F7F0408107F3E4141413E7F0909090634
:1078DC003E4151215E7F0919294626494949320307
:1078EC00017F01033F4040403F1F2040201F3F408D
:1078FC0038403F6314081463030478040361594946
:10790C004D43007F41414102040810200041414198
:10791C007F0402010204404040404000030708007D
:10792C0020545478407F2844443838444444283800
:10793C004444287F385454541800087E090218A473
:10794C00A49C787F0804047800447D4000204040CB
:10795C003D007F1028440000417F40007C047804E7
:10796C00787C080404783844444438FC18242418DF
:10797C0018242418FC7C0804040848545454240487
:10798C00043F44243C4040207C1C2040201C3C40B4
:10799C0030403C44281028444C9090907C446454D3
:1079AC004C440008364100000077000000413608C6
:1079BC000002010204023C2623263C1EA1A16112F6
:1079CC003A4040207A385454555921555579412222
:1079DC0054547842215554784020545579400C1E0B
:1079EC0052721239555555593954545459395554B4
:1079FC0054580000457C410002457D420001457C05
:107A0C00407D1211127DF0282528F07C545545003C
:107A1C002054547C547C0A097F4932494949323AF2
:107A2C004444443A324A4848303A4141217A3A4235
:107A3C00402078009DA0A07D3D4242423D3D40400B
:107A4C00403D3C24FF2424487E4943662B2FFC2FC9
:107A5C002BFF0929F620C0887E0903205454794154
:107A6C000000447D413048484A32384040227A0078
:107A7C007A0A0A727D0D19317D2629292F2826298B
:107A8C0029292630484D40203808080808080808DD
:107A9C0008382F10C8ACBA2F102834FA00007B001D
:107AAC000008142A142222142A14085500550055D3
:107ABC00AA55AA55AAFF55FF55FF000000FF00105C
:107ACC001010FF00141414FF001010FF00FF101012
:107ADC00F010F0141414FC001414F700FF0000FF55
:107AEC0000FF1414F404FC141417101F10101F10B2
:107AFC001F1414141F00101010F0000000001F10B1
:107B0C001010101F10101010F010000000FF1010BB
:107B1C0010101010101010FF10000000FF140000C7
:107B2C00FF00FF00001F10170000FC04F4141417D2
:107B3C0010171414F404F40000FF00F714141414B8
:107B4C00141414F700F7141414171410101F101F2A
:107B5C00141414F4141010F010F000001F101F0077
:107B6C0000001F14000000FC140000F010F01010B6
:107B7C00FF10FF141414FF141010101F000000004D
:107B8C00F010FFFFFFFFFFF0F0F0F0F0FFFFFF0041
:107B9C0000000000FFFF0F0F0F0F0F384444384454
:107BAC00FC4A4A4A347E02020606027E027E0263C8
:107BBC00554941633844443C04407E201E20060253
:107BCC007E020299A5E7A5991C2A492A1C4C720130
:107BDC00724C304A4D4D303048784830BC625A4671
:107BEC003D3E494949007E0101017E2A2A2A2A2A62
:107BFC0044445F444440514A444040444A5140004C
:107C0C0000FF0103E080FF000008086B6B083612D0
:107C1C00362436060F090F06000018180000001055
:107C2C0010003040FF0101001F01011E00191D173B
:107C3C0012003C3C3C3C0000000000000000000036
:107C4C0000000000000000000000000071490D0061
:107C5C0029650D00A5400D0079430D007B430D00F7
:107C6C00AD430D0089430D009B430D00BD420D003B
:107C7C0079430D00A5450D001F450D00C5430D00B2
:107C8C0003440D003D440D0083440D0021450D00BF
:107C9C009F440D0064656661756C7420004D534201
:107CAC00004C5342003C53504953657474696E67E1
:107CBC00732064656661756C743E003C5350495387
:107CCC00657474696E677320257325752025732080
:107CDC004D4F444525753E0000000000000000009B
:107CEC00914A0D007F4A0D00814A0D0000000000F2
:107CFC000001800000000000000000000380000074
:107D0C000000000000000007C000000000000000A0
:107D1C00000007C00000000000000000000FC000C1
:107D2C0000000000000000001FE000000000000048
:107D3C000000001FE00000000000000000003FE019
:107D4C000000000000000000003FF00000000000F8
:107D5C00000000007FF0000000000000001FF87F12
:107D6C00F0000000000000003FFE7FF0000000006B
:107D7C000000003FFF7FF0000000000000001FFF2C
:107D8C00FBE0000000000000000FFFF9FFC0000046
:107D9C00000000000FFFF9FFF800000000000007D2
:107DAC00FFF1FFFF00000000000003FC73FFFF80E9
:107DBC00000000000001FE3FFFFF800000000000FB
:107DCC0000FF1E0FFF000000000000007FFE1FFCE4
:107DDC00000000000000003FFFFFF8000000000062
:107DEC0000000FDFFFE0000000000000001F19FF83
:107DFC00C0000000000000003F3CFF00000000003D
:107E0C000000007E7CF800000000000000007FFEF7
:107E1C007C0000000000000000FFFFFC00000000E0
:107E2C0000000000FFFFFE0000000000000000FF4B
:107E3C00FFFE0000000000000001FFEFFE0000004C
:107E4C000000000001FFCFFE000000000000000356
:107E5C00FF07FE0000000000000003FC07FE00000E
:107E6C00000000000003F003FE0000000000000012
:107E7C00018000FE000000000000000000007E00F9
:107E8C000000000000000000003E000000000000A8
:107E9C00000000000C000000000000078000FC0047
:107EAC000003C0000000078001FC000003C00000BC
:107EBC0000078001FC000003C0000000078001E007
:107ECC000000001E000000078001E00000001E0002
:107EDC007FE3F79FF9FDE7787BDFC0FFF7FFBFFD7E
:107EEC00FDFF787BDFC0FFF7FFBFFDFDFF787BDF79
:107EFC00C0F0F787BC3DE1FF787BDE00F0F787BC74
:107F0C003DE1F0787BDE0000F787803DE1E0787B97
:107F1C00DE007FF7879FFDE1E0787BDE00FFF787CF
:107F2C00BFFDE1E0787BDE00F0F787BC3DE1E07857
:107F3C007BDE00F0F787BC3DE1E0787BDE00F0F7FC
:107F4C0087BC3DE1E0787BDE00FFF7FFBFFDE1E0A1
:107F5C007FFBDFC0FFF7FFBFFDE1E07FFBDFC07CF5
:107F6C00F3F39F3DE1E03E7BCFC00000000000003A
:107F7C000000000000FFFFFFFFFFFFFFFFFFFFC03F
:107F8C00FFFFFFFFFD68DB111A31C0FFFFFFFFFD94
:107F9C002B5AFB6AEFC0FFFFFFFFFD4B5B3B1A3315
:107FAC00C0FFFFFFFFFD6B5BDB6AFDC000006000E4
:107FBC0000000000000000000000000000E00000D5
:107FCC00000000000000000000000001E0000000C4
:107FDC000000000000000000000001F000000000A4
:107FEC0000000000000000000003F0000000000092
:107FFC00000000000000000007F00000000000007E
:10800C000000000000000007F80000000000000065
:10801C000000000000000FF800000003C0007E000C
:10802C000001E0007F0FF800000003C000FE00001C
:10803C0001E000FFEFF800000003C000FE000001AB
:10804C00E000FFFFF800000003C000F00000000F8C
:10805C00007FFE7FC0000003C000F00000000F0096
:10806C003FFE7FF83FF1FBCFFCFEF3BC3DEFE01F82
:10807C00FE7FFF7FFBFFDFFEFEFFBC3DEFE01FC678
:10808C00FFFF7FFBFFDFFEFEFFBC3DEFE00FE3C712
:10809C00FE787BC3DE1EF0FFBC3DEF0007FF87FCC4
:1080AC00787BC3DE1EF0F83C3DEF0001FFFFF000D3
:1080BC007BC3C01EF0F03C3DEF0001F37FE03FFBC3
:1080CC00C3CFFEF0F03C3DEF0003E33F807FFBC3EA
:1080DC00DFFEF0F03C3DEF0007E73C00787BC3DEB1
:1080EC001EF0F03C3DEF0007FFBE00787BC3DE1EA8
:1080FC00F0F03C3DEF0007FFFE00787BC3DE1EF086
:10810C00F03C3DEF000FFFFE007FFBFFDFFEF0F0C9
:10811C003FFDEFE00FFFFF007FFBFFDFFEF0F03FC6
:10812C00FDEFE00FF9FF003E79F9CF9EF0F01F3D17
:10813C00E7E01FF1FF00000000000000000000005D
:10814C00001F80FF007FFFFFFFFFFFFFFFFFFFE02F
:10815C001C007F007FFFFFFFFEB46D888D18E000D0
:10816C00001F007FFFFFFFFE95AD7DB577E000009F
:10817C000F007FFFFFFFFEA5AD9D8D19E0000006EF
:10818C00007FFFFFFFFEB5ADEDB57EE00000000007
:10819C0000000000E54A0D00FD4A0D0071490D007C
:1081AC0029650D00114B0D0079430D007B430D002B
:1081BC00AD430D0089430D009B430D00BD420D00E6
:1081CC0079430D00A5450D00CB4C0D005F520D0001
:1081DC0011520D003D440D0083440D0021450D004E
:1081EC009F440D000080C0E0F0F8FCFE0001030786
:1081FC000F1F3F7FAED580A8D300408D2000A1C8B3
:10820C00DB40A4A62EAFDA02818FDA1281DA02816A
:10821C002200FF2100000000000000000000000010
:10822C00B15A0D00D15A0D0071490D0029650D0090
:10823C00114B0D0079430D007B430D00AD430D0038
:10824C0089430D009B430D00BD420D0079430D0089
:10825C00A5450D00CB4C0D005F520D0011520D00C9
:10826C003D440D0083440D0021450D009F440D003D
:10827C0000000000000000000000000000000000F2
:10828C00CB610D00C1610D00B7610D00AD610D003A
:10829C00A1610D0095610D00FD630D0005640D00DD
:1082AC0089610D0081610D0077610D006D610D001C
:1082BC0035640D000000000000000000E9610D00B5
:1082CC0033620D000B620D00EB610D0013620D00AB
:1082DC001B620D0023620D002B620D0000000000DC
:1082EC0000000000A5620D0095620D0097620D0064
:1082FC00617070000000000000000000BD630D0004
:10830C00C7630D00D1630D00DB630D00E5630D0049
:10831C00F1630D00FD630D0005640D000D640D008F
:10832C0019640D0021640D002B640D0035640D00E3
:10833C000008101820283038776972696E6700724F
:10834C00656376206572726F72203D202564000093
:10835C00000000000000000093690D00B5690D00DD
:10836C00CF6D0D00C3690D0095690D000000000074
:10837C0000000000416A0D00756A0D0011690D00C6
:10838C002B690D00656C0D00D76A0D00A96A0D00F4
:10839C0055690D006F6B0D00F56D0D000B6B0D002D
:1083AC00196D0D0057690D0089690D003D690D00AF
:1083BC00C7690D00896A0D0025592D256D2D256481
:1083CC005425483A254D3A2553257A006173637438
:1083DC00696D65000000000000000000056F0D00D5
:1083EC00716F0D00496F0D0029650D00196F0D009F
:1083FC00356F0D00276F0D00436F0D00076F0D00DB
:10840C000B6F0D00000000000000000005700D0057
:10841C006D700D0043700D0029650D0035700D0059
:10842C0007700D0017700D0067700D0027700D00A0
:10843C0001700D0000000000000000006F710D00C5
:10844C0065710D005B710D0011710D004F710D0008
:10845C0043710D00FD630D0005640D0037710D00B7
:10846C002F710D0025710D001B710D0035640D0071
:10847C0000537431395F53705F6D616B655F736866
:10848C00617265645F74616700000000D8840D0040
:10849C007D840D0038850D00AC840D005C850D00CD
:1084AC004E31305F5F637878616269763131375F66
:1084BC005F636C6173735F747970655F696E666F0F
:1084CC004500000000000000A0840D0089740D0020
:1084DC009D740D0031760D0031760D0007750D0081
:1084EC0049740D00EF740D00B1740D007D740D0016
:1084FC0038850D0008850D00A0840D004E31305FCD
:10850C005F637878616269763132305F5F73695F7F
:10851C00636C6173735F747970655F696E666F45C8
:10852C000000000000000000FC840D0031750D00FF
:10853C0045750D0031760D0031760D0007750D0077
:10854C0049740D0005760D0091750D0059750D00DF
:10855C00D8840D0064850D00537439747970655F8F
:10856C00696E666F0000000021420D0045610D0030
:10857C00D5610D00AD630D0015650D005D660D0038
:10858C00D5680D00F16E0D0079710D000000000032
:04859C0000000000DB
:0485A00000000000D7
:1085A400D8830D00B4E403200000000000000000A4
:1085B40000000000000000000000000000000000B7
:1085C40000000000000000000000000000000000A7
:1085D4000000000000000000000000000000000097
:1085E4000000000000000000000000000000000087
:1085F4000000000000000000000000000000000077
:0886040000000000000000006E
:10860C00FFFFFFFF00000102030405060708090A2B
:10861C000B0C0D0E0F101112131415161718191A26
:08862C001B1C1D1E1F2028006D
:04863400785634122E
:04000003D000401CCD
:00000001FF
